:020000040000FA
:060000000A128A11FC2F18
:100E7C0083160313881408140800700C83120313D0
:100E8C00031C8813031888170800700C83120313B3
:100E9C00031C0813031808170800700C83120313A3
:100EAC00031C881203188816080083160313881372
:100EBC00081388128312031388130813881208006E
:100ECC008312031308080139F200F3017208F000D1
:100EDC007308F100712F080083120313080C0139F9
:100EEC00F200F3017208F0007308F1007D2F080086
:100EFC000A128A115B270A128A110A128A113E27DA
:100F0C000A128A11892F0A128A1172270A128A115F
:100F1C0070037104031D932F942F9D2F0130F0004B
:100F2C000030F1000A128A1143270A128A1101308B
:100F3C00F0000030F1000A128A114B270A128A11B4
:100F4C000030F000F1000A128A1153270A128A119C
:100F5C001A30F6005E30F5006E30F400F40BB42F4E
:100F6C00F50BB42FF60BB42F00000030F000F1009D
:100F7C000A128A1143270A128A110030F000F1007C
:100F8C000A128A114B270A128A110130F000003024
:100F9C00F1000A128A1153270A128A110A128A11B5
:100FAC0066270A128A1170037104031DDE2FDF2FCE
:100FBC00E72F0030F000F1000A128A1143270A12C1
:100FCC008A110030F000F1000A128A114B270A1224
:100FDC008A110030F000F1000A128A1153270A120C
:100FEC008A11892F892F0A128A11002883010A126B
:040FFC008A117E2FA9
:04400E00D4E8FFFFF4
:00000001FF
